:100000000C9422120C9453120C9453120C9453120D
:100010000C9453120C9453120C9453120C945312CC
:100020000C9453120C9453120C9453120C945312BC
:100030000C9453120C9453120C9453120C945312AC
:100040000C9453120C9453120C9453120C9453129C
:100050000C9453120C9453120C9453120D942D7053
:100060000C9453120D94B7730D94ED730C945312BA
:100070000C9453120C9453120C9453120C9453126C
:100080000C9453120C9453120C9453120C9453125C
:100090000C9453120C9453120C9453120C9453124C
:1000A0000C9453120C9453120C9453120C9453123C
:1000B0000C9453120C9453120C9453120C9453122C
:1000C0000C9453120C9453120C9453120C9453121C
:1000D0000C9453120C9453120C9453120C9453120C
:1000E0000C945312A40028019E000A010C01E800A0
:1000F000BA002A01C4008A00D60010013201B600FD
:10010000E8002E01E0002C010D941F740D94ED2ADF
:100110000D9407360D948A710D94825C0D94F05BFA
:100120000D9400540D94E2260D94073D0D944672F3
:100130000D941E480D9459490D9461720D94677188
:100140000D948F540D9419280D9475710D945D259F
:100150000D94B05E0D94755D0D94DD2E0D942118F7
:100160000D9465400D9448720D94634A0D949C71F2
:100170000D9496440D947C710D94EB120D9457429E
:100180000D9480570D9464230D9486710D9414354D
:100190000D94841A0D9405500D94D72C0D94E838C5
:1001A0000D94A62B0D94A30E0D949A450D948E716B
:1001B0000D9488430D9471140D94353F0D941F3C9C
:1001C0000D94A6710D947E510D946E580D94485265
:1001D0000D94AF710D945C210D948C370D941847DC
:1001E0000D94D74E0D9402290D9475720D94F372EF
:1001F0000D94E55D0D94D15A0D94555E0D94EA3041
:100200000D9453720D94D9550D94224E0D94371CB4
:100210000D9487160D946B710D9471710D942134AA
:100220000D9494710D944D220D94A8560D94CB4BC2
:100230000D94C9590D94CD3A0D941C590D94E31E9B
:100240000D9471320D948A410D94E51F0D94EB2DA0
:100250000D9478710D9480710D94AA710D94A27112
:100260000D946F740D9498710D94D33D0D94D272CA
:100270000D9416740D943A533B003B003B003B43F6
:10028000483D003B424C452044454255473B4C4588
:100290004E3D003B003B44454255473D003B733DCE
:1002A000003B743D003B706C747970653D003B4CC5
:1002B000656E3D003B003B4C55583D004F4E3B00AA
:1002C0004F46463B003B5357495443483D313B431F
:1002D0004D443D003B003B48554D3D003B4D79535F
:1002E000656E736F72733B49443D003B003B003BBE
:1002F000733D003B743D003B706C747970653D004C
:100300003B4D7953656E736F72733B4C656E3D0068
:100310003B003B4D7953656E736F722044454255E7
:10032000473B003B003B416E736C75746120444554
:100330004255473B004F4E3B005345545F4C45569A
:10034000454C3D383B004F46463B00434D443D0045
:100350003B5357495443483D303B003B416E736C1F
:100360007574613B49443D003B003B004279746534
:10037000733D003B416E736C75746120444542557A
:10038000473B003B003B4C6976436F6C2044454241
:1003900055473B004F4E3B004F46463B00434D44C4
:1003A0003D003B4C4956434F4C3B49443D003B00CC
:1003B0003B0042797465733D003B4C6976436F6C3A
:1003C0002044454255473B003B0026490327460849
:1003D000274A04284709451F145C2BC9E3116D5FA8
:1003E0008A2BAF031DF31AE2F0D104D87142AF0497
:1003F000DD076113386420703A20004352432065C2
:1004000072726F723A200020005061636B65743A1B
:10041000200020005D20005061636B6574207278BD
:100420003A205B00444953434F2D3B00444953431A
:100430004F2B3B00573B004D4F444500434F4C4F23
:10044000523B004252494748543B004F46463B000E
:100450004F4E3B00414C4C00434D443D00524742FF
:100460003D303030303B005247423D464630303B15
:10047000005247423D303046463B00323500323173
:10048000003230003541004134003B4D694C696712
:10049000687476313B49443D003B003B004279742F
:1004A00065733D003B4D694C696768742044454263
:1004B00055473B006E6F6C656E003B00434D443DFD
:1004C0004F4E00434D443D4F464600535749544319
:1004D000483D303B0049443D333B003B4750494F8A
:1004E0007365743B003B00434D443D4F4E00434D0C
:1004F000443D4F4646005357495443483D303B0026
:1005000049443D323B003B4750494F7365743B00C3
:100510003B00434D443D4F4E00434D443D4F464606
:10052000005357495443483D303B0049443D313B1B
:10053000003B4750494F7365743B003B00434D44BB
:100540003D4F4E00434D443D4F464600535749549E
:1005500043483D303B0049443D303B003B47504918
:100560004F7365743B003B003B50756C736573289B
:1005700075536563293D003B44454255473B5075E3
:100580006C7365733D003B536C6176653B446562FB
:1005900075673D003B536C6176653B003B536C6176
:1005A00076653B44656275673D003B536C617665DB
:1005B0003B003B004F4E004F4E004F4E004F4E0051
:1005C0004F4E004F4646004F4646004F4E004F46A6
:1005D00046004F4E004F4646004F4E003B53574992
:1005E0005443483D30313B434D443D003B41746CE6
:1005F000616E7469633B49443D00534D4F4B454127
:100600004C4552543D4F4E3B004F46463B004F4EEB
:100610003B00434D443D00536563753B0053656E9D
:10062000736F723B003B59575F004241543D4C4F42
:10063000573B004241543D4F4B3B003B416C65638F
:10064000746F2056323B003B444B57323031323BC3
:1006500000534D4F4B45414C4552543D4F4E3B008E
:100660005357495443483D30313B434D443D4F4E31
:100670003B003B524D31373452463B00534D4F4BBC
:1006800045414C4552543D4F4E3B0053574954430E
:10069000483D30313B434D443D4F4E3B003B416C68
:1006A0006563746F53413B00474F444F574E3B00C7
:1006B000474F55503B0053544F503B004F4E3B006B
:1006C0004F46463B00444F574E3B0055503B00437E
:1006D0004D443D005357495443483D30333B00534C
:1006E00057495443483D30323B00535749544348DF
:1006F0003D30313B003B4D657274696B3B00474FA9
:10070000444F574E3B00474F55503B0053544F50BA
:100710003B004F4E3B004F46463B00444F574E3B3D
:100720000055503B00434D443D0053574954434806
:100730003D31333B005357495443483D31323B0030
:100740005357495443483D31313B003B4D6572742A
:10075000696B5F475636303B00534D4F4B45414C1C
:100760004552543D4F4E3B005357495443483D304A
:10077000313B434D443D4F4E3B003B4641323052AE
:10078000463B004348494D453D30313B00535749B6
:100790005443483D313B434D443D4F4E3B003B4469
:1007A0006F6F7262656C6C3B004348494D453D304C
:1007B000313B005357495443483D313B434D443D41
:1007C0004F4E3B003B46726965646C616E643B0052
:1007D0004348494D453D30313B0053574954434808
:1007E0003D313B434D443D4F4E3B003B446F6F72A8
:1007F00062656C6C3B004348494D453D30313B00E0
:100800005357495443483D313B434D443D4F4E3B84
:10081000003B456C726F44423B004348494D453DA7
:1008200030313B005357495443483D313B434D44DD
:100830003D4F4E3B003B446F6F7262656C6C3B00FA
:100840004348494D453D30313B0053574954434897
:100850003D313B434D443D4F4E3B003B53696C762D
:100860006572637265737444423B004348494D4569
:100870003D30313B005357495443483D313B434D94
:10088000443D4F4E3B003B4279726F6E204D503BD2
:10089000004348494D453D30313B0053574954438F
:1008A000483D313B434D443D4F4E3B003B44656C1E
:1008B00074726F6E69633B003B4279726F6E3B00EE
:1008C0005357495443483D313B434D443D4F4E3BC4
:1008D000003B506C69656765723B004348494D4574
:1008E0003D30313B005357495443483D313B434D24
:1008F000443D4F4E3B003B446F6F7262656C6C3BF6
:10090000003B434D443D4F4E3B4348494D453D30F0
:10091000313B005357495443483D003B53656C6598
:100920006374506C75733B004F46463B004F4E3B23
:1009300000434D443D005357495443483D30313BFB
:10094000003B42726F61646C696E6B3B00434D44C7
:100950003D4F46463B00434D443D4F4E3B005357B1
:10096000495443483D30313B003B46414C4D4543A3
:100970003B004F4B3B004C4F573B004F4B3B004223
:1009800041543D00434D443D4F46463B00434D449A
:100990003D4F4E3B003B5357495443483D30313B5C
:1009A000003B4B6F6E69675365633B49443D0043B1
:1009B0004D443D4F4E3B00434D443D4F46463B006A
:1009C0005357495443483D30313B003B44697465BB
:1009D000633B003B434D443D4F4E3B00535749540E
:1009E00043483D003B46726965646C616E643B0040
:1009F0004F46463B004F4E3B00434D443D0053574E
:100A0000495443483D30313B003B4C6F6265636F56
:100A10003B00434D443D4F4E3B00535749544348E0
:100A20003D30313B003B4D433134353032363B00B5
:100A30003B004F4E004F4E004F4E004F4E004F4E6A
:100A4000004F4646004F4646004F4E004F46460078
:100A50004F4E004F4646004F4E003B5357495443BC
:100A6000483D30313B434D443D003B41746C616E29
:100A70007469633B49443D004241543D4C4F573BF0
:100A8000004241543D4F4B3B00434D443D4F4E3B94
:100A900000434D443D4F46463B003B4B65656C6F04
:100AA000713B49443D00434D443D4F4E3B003B5854
:100AB00031303B00434D443D4F4E3B00434D443DA0
:100AC0004F46463B005357495443483D30323B0064
:100AD0003B436875616E676F3B00434D443D4F4E2D
:100AE0003B003B4556313532373B00434D443D4F8B
:100AF0004E3B005357495443483D30313B003B483F
:100B0000543132453B004F46463B004F4E3B00437D
:100B10004D443D0044504D3B004F46463B004F4E38
:100B20003B00434D443D003B44726179746F6E3B22
:100B3000003B00434F4D300045434F0046524F535A
:100B40005400434F4D3100434F4D320053434F4DFE
:100B50003D004F46463B004F4E3B00434D443D0059
:100B60003B48616765723B003B46616265723B00D2
:100B7000434D443D4F4E3B00434D443D4F46463B65
:100B8000003B46616265723B00434D443D4F4E3B26
:100B900000434D443D4F46463B005357495443485C
:100BA0003D30313B003B4C454752414E444341446C
:100BB0003B004F46463B004F4E3B004F4E3B004FE5
:100BC00046463B00434D443D003B4E696E67626FB5
:100BD00036343B004241543D4F4B3B004241543D73
:100BE0004C4F573B00434D443D4F4E3B00534D4F00
:100BF0004B45414C4552543D4F46463B00434D44C6
:100C00003D4F46463B00534D4F4B45414C4552549A
:100C10003D4F4E3B00434D443D4F4E3B00455854E5
:100C20003D54697869613235383B00434D443D4F4E
:100C30004E3B00434D443D4F46463B004558543DD6
:100C4000436F6E746163743B00434D443D4F4646B1
:100C50003B00434D443D4F4E3B00434D443D4F46CA
:100C6000463B00434D443D4F4E3B004558543D509C
:100C700049523B00434D443D4F46463B00434D44A3
:100C80003D4F4E3B004558543D4152656D6F746574
:100C90003B00434D443D4F46463B00434D443D4F92
:100CA0004E3B004558543D54595849413B00434D33
:100CB000443D4F4E3B00434D443D4F46463B004371
:100CC0004D443D4F46463B00434D443D4F4E3B0057
:100CD0004558543D5459444F4D3B00434D443D4FBE
:100CE0004E3B004558543D44656C74696131303366
:100CF0003B00434D443D4F4E3B00434D443D4F462A
:100D0000463B004558543D5479646F6D3331353B53
:100D100000434D443D4F4E3B00434D443D4F4646FE
:100D20003B004558543D43616C79626F78323230F4
:100D30003B00434D443D4F4E3B004558543D547994
:100D4000626F783331303B00434D443D4F4E3B00A2
:100D5000434D443D4F46463B004558543D5479620F
:100D60006F783B00434D443D4F46463B00434D4466
:100D70003D4F4E3B003B58324444454255473B00B3
:100D80003B4265757265723B003B56696B696E67E5
:100D90003B003B4654303034543B003B534C3130E5
:100DA000393B003B46697273746C696E653B003B6E
:100DB00044696769746563683B004241543D4C4F28
:100DC000573B004241543D4F4B3B003B424C39396D
:100DD000393B003B5246546563683B004241543DF9
:100DE0004C4F573B004241543D4F4B3B003B42610F
:100DF0006C64723B003B4C6163726F737365563475
:100E0000623B003B4C6163726F73736556343B0009
:100E10003B4163757269746556333B003B496E6FA5
:100E200056616C6C65795F534D3230303B003B52FC
:100E3000656E6B666F72636520455F54413B003B96
:100E4000416C6563746F5F313330305F536F696C31
:100E50003B003B416C6563746F5F313330305F4101
:100E600069723B003B5748333B004241543D4C4F75
:100E7000573B004241543D4F4B3B003B4163757231
:100E800069746556323B004241543D4C4F573B001C
:100E90004241543D4F4B3B003B4163757269746561
:100EA0003B003B46696E654F6666736574323B0076
:100EB0004241543D4C4F573B004241543D4F4B3B08
:100EC000003B5748353032393B0049443D30300013
:100ED0003B436F6E7261643B003B5068696C6970A4
:100EE000733B003B42696C74656D613B49443D3026
:100EF00030003B52465831304D455445523B003B43
:100F0000003B4F7265676F6E205747523830303B59
:100F100044454255473D003B4F574C5F496E747501
:100F20006974696F6E3B49443D3032003B4F574C0A
:100F30005F496E74756974696F6E3B49443D303129
:100F4000003B4F574C5F496E74756974696F6E3B17
:100F500049443D3030003B4F574C5F496E747569D2
:100F600074696F6E3B49443D3033003B003B4F5743
:100F70004C5F434D3138303B49443D3030003B00FD
:100F80003B4F574C5F434D3131393B49443D303045
:100F9000003B4F574C5F434D3136303B49443D3069
:100FA00030003B003B4F574C5F434D3133303B49A2
:100FB000443D3030003B003B4F574C5F434D313197
:100FC000333B49443D004241543D4F4B3B0042417D
:100FD000543D4C4F573B003B4F7265676F6E205539
:100FE000564E3830303B49443D004241543D4F4B12
:100FF0003B004241543D4C4F573B003B4F726567AD
:101000006F6E2055564E3178383B49443D00424181
:10101000543D4F4B3B004241543D4C4F573B003BEE
:101020004F7265676F6E2057696E64323B49443D6D
:10103000004241543D4F4B3B004241543D4C4F57C1
:101040003B003B4F7265676F6E2057696E643B498A
:10105000443D004241543D4C4F573B004241543DBA
:101060004F4B3B003B4F7265676F6E205261696E5C
:10107000323B49443D004241543D4F4B3B004241CD
:10108000543D4C4F573B003B4F7265676F6E20528B
:1010900061696E3B49443D004241543D4C4F573BD2
:1010A000004241543D4F4B3B003B4F7265676F6EB2
:1010B000204254483B49443D004241543D4C4F5727
:1010C0003B004241543D4F4B3B003B4F7265676FC5
:1010D0006E2054656D70487967726F3B49443D00DE
:1010E0004241543D4C4F573B004241543D4F4B3BD6
:1010F000003B4F7265676F6E2054656D703B4944CD
:101100003D004241543D4F4B3B004241543D4C4F0A
:10111000573B003B4F7265676F6E56313B49443D0C
:101120003030003B42696F77696E3B004241543D6D
:101130004F4B3B004241543D4C4F573B003B547595
:101140006E65783B49443D003B5869726F6E3B4980
:10115000443D003B417572696F6C2056323B4944F7
:101160003D004241543D4F4B3B004241543D4C4FAA
:10117000573B003B417572696F6C3B49443D3030D1
:10118000003B417572696F6C2056333B49443D000A
:101190003B4C6143726F7373653B49443D003B4C6C
:1011A0006143726F7373653B49443D003B54464154
:1011B0003B49443D003B5446413B49443D0042418C
:1011C000543D4F4B3B004241543D4C4F573B003B3D
:1011D00055504D5F457369633B49443D003B0044B6
:1011E000454255473D003B4C6143726F73736556F2
:1011F000333B49443D003B4C6143726F737365560A
:10120000333B49443D003B4C6143726F73736556F9
:10121000333B49443D003B4C6143726F73736556E9
:10122000333B49443D003B4C6143726F73736556D9
:10123000333B49443D003B4C6143726F73736556C9
:10124000333B49443D003B4D656275733B00424171
:10125000543D4F4B3B004241543D4C4F573B003BAC
:10126000496E6F56616C6C65793B003B4B726970DF
:10127000706C3B003B4D6172696D65783B003B5083
:10128000726F6C6F6775653B003B4575726F636885
:10129000726F6E3B003B5754303132323B003B00A3
:1012A0003B4372657374613B44454255473B494437
:1012B0003D004241543D4C4F573B004241543D4F4D
:1012C0004B3B003B4372657374613B49443D0042B4
:1012D00041543D4C4F573B004241543D4F4B3B0026
:1012E0003B4372657374613B49443D004241543D48
:1012F0004C4F573B004241543D4F4B3B003B4372E8
:10130000657374613B49443D004241543D4C4F5725
:101310003B004241543D4F4B3B003B43726573746D
:10132000613B49443D004241543D4C4F573B0042D4
:1013300041543D4F4B3B003B4372657374613B49E5
:10134000443D003B416C6563746F2056353B004261
:1013500041543D4C4F573B004241543D4F4B3B00A5
:101360003B506F6C6C696E3B003B476C6F62616C0D
:1013700054726F6E6963733B003B416C6563746FBD
:101380002056343B003B416C6563746F56333B0021
:101390003B58543230303B003B46696E654F6666C1
:1013A0007365743B003B496D6167696E74726F6E63
:1013B00069783B003B416C6563746F2056313B009C
:1013C0003B416C6563746F2056313B003B416C655B
:1013D00063746F2056313B004241543D4C4F573BA4
:1013E000004241543D4F4B3B003B416C6563746F81
:1013F0002056313B004241543D4C4F573B00424147
:10140000543D4F4B3B003B463030375F783B003B11
:10141000463030375F545F50463B003B46303037F4
:101420005F54483B0053544F503B00444F574E3B92
:101430000055503B00434D443D003B4C6977696E7D
:101440003B004241543D4C4F573B004241543D4FBD
:101450004B3B003B41637572697465336E313B49A8
:10146000443D004241543D4C4F573B004241543DA6
:101470004F4B3B003B416375726974653839393BAA
:1014800049443D004F4E3B004F46463B00414C4CCB
:1014900000434D443D003B5374656666656E3B00FA
:1014A0004F46463B004F4E3B00414C4C00434D44A1
:1014B0003D003B4E696E67626F3B003B004F464606
:1014C0003B004F4E3B004F4E3B00444F574E3B00BE
:1014D00055503B00434D443D005357495443483D0C
:1014E000323B005357495443483D313B0053574921
:1014F0005443483D303B003B426F7363683B0043BD
:101500004D443D4F46463B00434D443D53544F50A0
:101510003B00434D443D444F574E3B00434D443DFB
:1015200055503B00434D443D4F4E3B0053574954AB
:1015300043483D003B4854365032303B004F46460E
:101540003B004F4E3B00434D443D003B5452303036
:10155000393B0053544F503B00444F574E3B0055CE
:10156000503B00434D443D003B4761706F73613B0E
:10157000003B003B4741504F53413B444542554798
:101580003D003B5265766F6C743B004F46463B0016
:101590004F4E3B00434D443D003B48616C656D65DB
:1015A0006965723B003B4D65726361746F723B000D
:1015B0004F4E3B004F46463B00434D443D003B4EA3
:1015C0006F76617479733B0053544F503B00444F26
:1015D000574E3B0055503B00434D443D003B444972
:1015E00059413B004F46463B0053544F503B004F40
:1015F0004E3B00414C4C00434D443D003B466F7216
:101600006573743B49443D004F4E3B00434D443DA0
:10161000003B4C69766F6C6F3B0053544F503B005E
:10162000504149523B0053544F503B0055503B00F2
:10163000444F574E3B00434D443D003B4B696E6762
:1016400070696E3B004F46463B004F4E3B00414C9D
:101650004C00434D443D003B4B6F63683B0053548B
:101660004F503B004F4E3B0053544F503B00444FB4
:10167000574E3B0055503B0053544F503B00444F96
:10168000574E3B0055503B0053544F503B00444F86
:10169000574E3B0055503B0053544F503B00444F76
:1016A000574E3B0055503B00434D443D0053574976
:1016B0005443483D30313B003B5254533B003B00C8
:1016C000333B003B44454255473B52545320500066
:1016D00053544F503B004F4E3B0053544F503B0030
:1016E000444F574E3B0055503B0053544F503B0026
:1016F000444F574E3B0055503B0053544F503B0016
:10170000444F574E3B0055503B0053544F503B0005
:10171000444F574E3B0055503B00434D443D005312
:1017200057495443483D30313B003B5254533B00F2
:101730003B00323B003B44454255473B525453200B
:10174000500053544F503B004F4E3B0053544F50AA
:101750003B00444F574E3B0055503B0055503B001B
:10176000444F574E3B0053544F503B00444F574E4D
:101770003B0055503B0053544F503B00444F574E95
:101780003B0055503B0053544F503B00444F574E85
:101790003B0055503B00434D443D00535749544393
:1017A000483D30313B003B5254533B003B00313B02
:1017B000003B44454255473B52545320500053543C
:1017C0004F503B0053544F503B00444F574E3B004B
:1017D00055503B00434D443D003B4852434D6F74D0
:1017E0006F723B003B0044454255473D004C4F570C
:1017F0003B004F4B3B004241543D004F4E3B004F9E
:1018000046463B00414C4C00434D443D003B467531
:101810006E6B6275733B003B003B002F003B4675CF
:101820006E6B6275733B4241444352433B444542B5
:1018300055473D00434D443D4F4E3B003B56656C84
:101840006C656D616E3B0053544F503B00444F57E5
:101850004E3B0055503B00434D443D003B446F6FB1
:1018600079615F76343B003B446F6F79615F76331B
:101870003B003B446F6F79615F76323B003B446FC6
:101880006F79613B0053544F503B004F4E3B004C2F
:101890004F434B3B0053544F503B00444F574E3B3C
:1018A0000055503B00434D443D003B4272656C4D3A
:1018B0006F746F723B00504149523B004C494D4997
:1018C000543B00434F4E4649524D3B0053544F50FA
:1018D0003B00444F574E3B0055503B0055503B009A
:1018E000434D443D003B426F66754D6F746F723BD4
:1018F000004F46463B004F4E3B00414C4C00434D91
:10190000443D003B53696C76657243726573743B6A
:10191000005357495443483D30303B004F46463B07
:10192000004F4E3B00434D443D003B523534363B67
:10193000004F46463B00414C4C4F46463B004F460D
:10194000463B004F4E3B0053544F503B004F4E3BE5
:10195000004F46463B00414C4C4F46463B004F4EE5
:101960003B004F46463B00434D443D003B4C6967BE
:101970006874776176653B004F46463B004F4E3BAF
:1019800000414C4C00434D443D003B556E6974652D
:10199000633B004F46463B004F4E3B00414C4C00E2
:1019A000434D443D003B4575726F70653B004F4EA3
:1019B0003B004F46463B004F4E3B004F46463B00E8
:1019C000434D443D005357495443483D30323B005A
:1019D0005357495443483D30313B003B4173746594
:1019E000723B004F4E3B004F46463B00414C4C0083
:1019F000434D443D003B4D61636C65616E3B004F60
:101A00004E3B004F46463B00414C4C00434D443D4D
:101A1000004F4E3B004F46463B00434D443D003B8C
:101A2000496B6561204B6F70706C613B00414C4CA1
:101A30004F4E3B00414C4C4F46463B0044494D3BCA
:101A4000004252494748543B004F4E3B004F4646E8
:101A50003B00434D443D003B506F776572666978AB
:101A60003B004F4E3B004F46463B00434D443D003C
:101A70003B46413530303B003B486F6D65436F6EF0
:101A8000666F72743B004F4E3B004F46463B004131
:101A90004C4C00434D443D003B486F6D65436F6EB9
:101AA000666F72743B00444953434F2D3B004449D9
:101AB00053434F2B3B004252494748543B00444953
:101AC0004D3B004F46463B00434D443D003B545286
:101AD0004330325247423B003B58313053656E73BE
:101AE0006F723B004F4E3B004F46463B00434D4418
:101AF0003D003B5831305365637572653B00414C86
:101B00004C4F4E3B00414C4C4F46463B0044494DE8
:101B10003B004252494748543B004F4E3B004F4622
:101B2000463B00434D443D003B5831303B004F4E57
:101B30003B004F46463B00434D443D003B4B616DEF
:101B400062726F6F6B3B004F46463B004F4E3B004F
:101B5000414C4C00434D443D003B436F6E72616409
:101B60003B00414C4C4F46463B00414C4C4F4E3B9A
:101B7000004F46463B004F4E3B00434D443D003B2B
:101B8000426C7973735F54483B003B4173747265D8
:101B90006C6C3B003B4176696473656E3B003B4275
:101BA0006C7973733B00434D443D4F4E3B003B56B5
:101BB0003250686F656E69783B004F4E3B004F4670
:101BC000463B004F46463B004F4E3B004F4E3B00CE
:101BD0004F46463B00414C4C00434D443D003B4585
:101BE00075726F646F6D6573743B00414C4C4F4E62
:101BF0003B00414C4C4F46463B004F4E3B004F464E
:101C0000463B00434D443D003B4E65774B616B7551
:101C10003B004F46463B004F4E3B004F4E3B004F74
:101C200046463B00414C4C00434D443D003B547202
:101C30006953746174653B003B5054323236323B19
:101C4000003B5068696C6970733B003B496D70756F
:101C50006C733B003B53617274616E6F3B003B4998
:101C60006D70756C733B003B4142343030443B0037
:101C70003B4B616B753B004F46463B004F4E3B0074
:101C80003B434D443D003B5246437573746F6D3B7F
:101C900049443D3532343634333B53574954434835
:101CA0003D003B003B003B003B003B524646696E1B
:101CB000643B783B003B4C6143726F7373655632F3
:101CC0003B49443D003B4C6143726F737365563230
:101CD0003B49443D003B4C6143726F737365563220
:101CE0003B49443D003B4C6143726F737365563210
:101CF0003B49443D003B003B50756C736573287550
:101D0000536563293D003B44454255473B50756C44
:101D10007365733D003B536C6176653B446562754A
:101D2000673D003B536C6176653B00202D20002011
:101D3000746F20004E52462053656E643A00520084
:101D4000206973204F6E6C696E65004F6E6C696E12
:101D5000653A004E524620426567696E0053512035
:101D6000746F200020535420002046200020432080
:101D70000020442000205320003C5420004C65618A
:101D8000726E656420004475702100204964200053
:101D900020472000204600205371200020442000CE
:101DA000205320004E52460053200032303B00208A
:101DB0002D204F464600202D204F4E0020543A2023
:101DC00000204C3A200020533A20002049443A2079
:101DD000005246205265636F72643A2000204164CD
:101DE00064726573733A20004C69636F20526563B7
:101DF0006F72643A20005265676973746572656436
:101E0000204C6976696E6720436F6C6F7273206136
:101E100064647265737365733A20005254534C4F77
:101E20004E4754583D4F4E00525453494E5645521A
:101E3000543D4F4E002052433A20002041646472CA
:101E40006573733A2000525453205265636F726475
:101E50003A20002052433A200020416464726573A6
:101E6000733A2000525453205265636F72643A20D3
:101E7000003B434D4420554E4B4E4F574E3B003B8D
:101E80004F4B3B003B003B003B0046463B004E3B7C
:101E90000046463B004E3B003B5254534C4F4E478E
:101EA00054583D4F0046463B004E3B003B52545376
:101EB000494E564552543D4F0046463B004E3B006E
:101EC0003B52545320434C45414E45443B00204334
:101ED0004C45414E45443B003B5245434F52442004
:101EE000003B454550524F4D20434C45414E4544E3
:101EF0003B003B454550524F4D20434C45414E45DC
:101F0000443B0046463B004E3B003B4E5246444558
:101F10004255473D003B003B4255494C443D003B48
:101F20005645523D312E313B5245563D004E6F20B5
:101F30005246207265636F726473002052454D4FA4
:101F40005645443B003B5245434F524420004E6FA0
:101F5000205246207265636F726473004E6F205288
:101F600046207265636F7264730046463B004E3BC9
:101F7000003B524646494E443D4F0046463B004ECC
:101F80003B003B52465544454255473D4F0046466F
:101F90003B004E3B003B524644454255473D4F00B7
:101FA00046463B004E3B004D7973656E736F72730E
:101FB0003D4F0046463B004E3B00424C453D4F00E6
:101FC00046463B004E3B004750494F3D4F0046467A
:101FD0003B004E3B00416E736C7574613D4F004693
:101FE000463B004E3B004C6976696E67436F6C6FF1
:101FF00072733D4F0046463B004E3B004D696C6995
:102000006768743D4F0046463B004E3B004E6F6490
:102010006F4E52463D4F0046463B004E3B005246F7
:102020003433332F3836383D4F003B5354415455E9
:10203000533B003B504F4E473B003B4F4B3B003B1D
:102040007365744750494F3D4F4E3B004E3B004631
:10205000463B4E4F204343323530303B003B7365A7
:1020600074416E736C7574613D4F004E3B00464683
:102070003B4E4F204343323530303B003B73657459
:102080004C6976696E67436F6C6F72733D4F004E9B
:102090003B0046463B4E4F204E524632344C303188
:1020A0003B003B4D7953656E736F72733D4F004E2D
:1020B0003B0046463B4E4F204E524632344C303168
:1020C0003B003B424C453D4F004E3B0046463B4E9D
:1020D0004F204E524632344C30313B003B4D694C20
:1020E000696768743D4F003B4E6F646F4E52463DCA
:1020F0004F4E3B003B5573657220696E6974696190
:102100007465643A20454550524F4D207365747490
:10211000696E67732072657365743B003B496E742A
:1021200065726E616C2050756C6C7570206F6E20DE
:1021300052462D696E2064697361626C65643B0070
:1021400032303B30303B4E6F646F20526164696FB8
:102150004672657175656E63794C696E6B202D20D2
:1021600052464C696E6B20476174657761792056E1
:10217000312E31202D2052000908070605040302E4
:1021800001000F0E0D0C0B0A0E0B0D0C0F0A0009AF
:10219000030604050207010800002D005A0087000D
:1021A000B400E1000E013B010003080B02010A0923
:1021B0000C0F04070E0D0605F6EEEDEBDEDDDBBEC3
:1021C000BDBBB77E7D7B776F00474B4D4E53555659
:1021D000595A5C636566696A6C00222212123232B7
:1021E0000A0A2A2A1A1A3A3A260001030507090B95
:1021F0000D0F090606030308080A0A000002020C74
:102200000C04040E0E0707050501010F0F0B0B0D43
:102210000D091112131415160A0B0C0D0E0F0001E7
:102220000203040500000A0B02090C0D0E08070347
:102230000401000000000000000000000000000099
:10224000000000000000000000000000000000008E
:10225000121110000000000000000000000000004B
:102260000000000000000000000001021020200813
:1022700008102040102040800201020108040201E1
:102280000102040810204080804020100804020150
:1022900080040201804020100804020108040201A9
:1022A0000102040810204080010204081020408030
:1022B00005050505070508080808020202020A0AC2
:1022C00008080404040401010101010101010303E0
:1022D000030303030303040707070C0C0C0C0C0C8B
:1022E0000C0C0202020206060606060606060B0B88
:1022F0000B0B0B0B0B0B000020002300260029000A
:102300002C002F003200000100000301060109012A
:1023100000002200250028002B002E003100340090
:1023200002010000050108010B010000210024004A
:1023300027002A002D0030003300010100000401B5
:1023400007010A0100407A10F35A00A0724E1809E2
:102350000010A5D4E80000E87648170000E40B540C
:10236000020000CA9A3B000000E1F50500008096DB
:102370009800000040420F000000A086010000000D
:10238000102700000000E8030000000064000000C7
:1023900000000A00000000000100000000002C7690
:1023A000D888DC674F0823DFC1DFAE59E1B1B796AB
:1023B000E5E3E453C63AE651997696E8E6C2842608
:1023C000EB898C9B62ED407C6FFCEFBC9C9F40F2E4
:1023D000BAA56FA5F490055A2AF75C936B6CF96760
:1023E0006DC11BFCE0E40D47FEF520E6B500D0ED25
:1023F000902E0300943577050080841E080000208D
:102400004E0A000000C80C333333330F986E12832A
:102410001141EF8D2114893BE65516CFFEE6DB18FE
:10242000D1844B381BF77C1D901DA4BBE4242032C3
:1024300084725E228100C9F124ECA1E53D27FC00F5
:102440008400A80011241FBECFEFD1E2DEBFCDBFB4
:1024500000E00CBF1CE0A0E0B2E0EAEEF1E003E037
:102460000BBF02C007900D92A63DB107D9F725E139
:10247000A6EDBCE001C01D92A33FB207E1F714E254
:10248000C2E4D4E200E006C022970109FE010BBFBE
:102490000F943679CE33D10780E00807A9F70F945F
:1024A00063740D94E4800C940000FC016150A8F06A
:1024B0009081892F881F8827881F96FD826095FD4F
:1024C000846094FD886093FD806192FD806291FD3F
:1024D000806490FD80688193E9CF0895FC01E45900
:1024E000FF4F71836083329610820895EF92FF92BE
:1024F0000F931F93CF93DF938C01F62EEC01C459F9
:10250000DF4F888199810F94A76F888199810F94FB
:10251000476F61E070E0888199810F94686F8881CE
:1025200099810F940A70019719F08FEF9FEF77C090
:1025300060E070E0888199810F94686F888199814B
:102540000F940A70892B89F764E0888199810F9430
:102550008F6E88819981F11024C060E070E00F9443
:10256000686FF801E259FF4FE081F0E0E958FD4F54
:102570006081888199810F94236D21E7E22E31E9F2
:10258000F32E0DE71BE620E030E040E050E060E095
:10259000888199810F94226E01E711E92DE73BE6CE
:1025A0001CC062E070E00F94686F6CE488819981D0
:1025B0000F94236D8CEFE82E91EEF92E08EA18EABD
:1025C00020E030E040E050E060E0888199810F94A5
:1025D000226E0CEF11EE28EA38EA40E050E060E0AD
:1025E00070E0888199810F94D36D60E08881998132
:1025F0000F944A6F888199810F94197040E060E0D0
:10260000888199810F94257063E0888199810F9466
:10261000516F888199810F945F6D80E090E0DF9128
:10262000CF911F910F91FF90EF900895FC01E25917
:10263000FF4F20812F5F233010F4208301C01082D0
:10264000E081F0E0E958FD4FDC01A459BF4F608103
:102650008D919C910D94236DEF92FF920F931F9398
:10266000CF93DF938C017B01EC01C459DF4F88814C
:1026700099810F940E6FB701882777FD8095982F69
:102680000F94A670888199810F94C66DF82E8823C7
:10269000B9F0005D1F4F888199810F94C66D882322
:1026A00079F0888199810F942F6D48E2B801888173
:1026B00099810F94C96D888199810F94086DEBCF32
:1026C0008F2DDF91CF911F910F91FF90EF90089583
:1026D000CF92DF92EF92FF920F931F93CF93DF93EE
:1026E00000D01F92CDB7DEB78C0164E670E0B4DF96
:1026F000882309F46DC18091BB138823F9F06CEE37
:102700007AE084E595E10F94D2748091BD1391E055
:10271000980F9093BD130E94762662E173E084E5E2
:1027200095E10F94AD7460E2C801C0960E94212625
:1027300060E173E084E595E10F94DD7480E090E062
:10274000F801E80FF91F22A9220F22AB33A937FFA6
:1027500002C02F5F22AB01968730910589F7F801FF
:10276000F5A8F694F694F694D6A8D294D69447E0B9
:10277000D422E7A8C0AC20E030E02F1570F4F801B7
:10278000E20FF31F91AD990F91AF82AD87FF02C0A9
:102790009F5F91AF2F5F3F4FF0CF8091BC13882395
:1027A000C1F10E94BB2A60E073E084E595E10F94DB
:1027B000AD748F2D0E94762667EF72E084E595E177
:1027C0000F94AD748D2D0E94762663EF72E084E540
:1027D00095E10F94AD748E2D0E9476266FEE72E017
:1027E00084E595E10F94AD748C2D0E9476266DEEF4
:1027F00072E084E595E10F94AD7469E06F0DC80156
:10280000C0960E9421266BEE72E084E595E10F945C
:10281000DD740E94BB2A6CED72E084E595E10F94B3
:10282000AD74F80182A90E947626E11044C0F80137
:1028300081AD898382AD8A8383AD8B8384AD8C83A4
:1028400069817A818B819C8105EE1CE021E042E068
:102850000F9474798091E80C8093E70C1092E80C47
:10286000C8010F94FF7A9F938F9384EB97E09F9317
:102870008F938BE693E19F938F930F94AC7B6BE6E2
:1028800073E184E595E10F94D2740F900F900F904F
:102890000F900F900F9084E595E10F900F900F909F
:1028A0000F90DF91CF911F910F91FF90EF90DF90EC
:1028B000CF900D94DA74F1E0EF1221C066ED72E072
:1028C00084E595E10F94AD74F80181AD898382AD03
:1028D0008A8383AD8B8384AD8C8369817A818B817C
:1028E0009C8106ED1CE020E042E00F947479B80171
:1028F00084E595E10F94D27464ED72E059C0F6E17D
:10290000EF1210C065EC72E084E595E10F94AD74B0
:10291000F80181AD811103C060EC72E049C06CEB3D
:1029200072E046C0F1E1EF1211C066EB72E084E59F
:1029300095E10F94AD74F80182AD0E947626F801FE
:1029400081AD0E94762664EB72E032C06EEA72E0DE
:1029500084E595E10F94AD748F2D0E94762665EA8B
:1029600072E084E595E10F94AD748D2D0E9476267A
:1029700061EA72E084E595E10F94AD748E2D0E94BA
:1029800076266DE972E084E595E10F94AD748C2DA7
:102990000E94762665E972E084E595E10F94AD74B6
:1029A00069E06F0DC801C0960E94212663E972E0BC
:1029B00084E595E10F900F900F900F90DF91CF91EC
:1029C0001F910F91FF90EF90DF90CF900D94DD74E9
:1029D0000F900F900F900F90DF91CF911F910F915B
:1029E000FF90EF90DF90CF900895FC01E259FF4FE8
:1029F000A081B0E0A658BD4F4C914064FC0158E85E
:102A0000615088F028E030E091E080E040FF02C0B3
:102A10004527892B4695990F21503109B9F79081A7
:102A200098279193EDCF08950F931F93CF93DF9342
:102A3000FA012AEA208321832283DAED10E661502D
:102A400040F1DC01CD91CD0170814181A8E0B0E081
:102A5000072F0170272F30E035952795722F40FD05
:102A6000706850E055954795228120FD406830E020
:102A7000359527955C2F5170051302C0228303C042
:102A80002D2722834127C695119711F77083418323
:102A9000D6CFDF91CF911F910F910895CF92DF9202
:102AA000EF92FF920F931F93CF93DF9300D0CDB798
:102AB000DEB78C016B017C018CE6E80EF11CF7019E
:102AC000808191810F940E6FB601882777FD8095E4
:102AD000982F0F94A670F701808191810F94C66D95
:102AE000D82E882369F1F701808191810F94C66DFA
:102AF000882301F1F701808191810F942F6D40E3CC
:102B0000B801F701808191810F94C96DF70180812F
:102B100091810F94086D60E3C801C7DC60E3C801D0
:102B200064DFF80161816E5FAE014F5F5F4FC801E6
:102B30007BDFD9CFF801E259FF4F808180930D0EE2
:102B40008D2D0F900F900F90DF91CF911F910F91CE
:102B5000FF90EF90DF90CF900895CF93DF93EC013B
:102B600064E670E09BDF8823C9F189818132B0F58A
:102B70000E94BB2A63E872E084E595E10F94AD748E
:102B800089810E9476266EE772E084E595E10F94D4
:102B9000AD744AE050E060910D0E84E595E10F942C
:102BA000C4756CE772E084E595E10F94AD7466E05E
:102BB000CE0102960E9421266AE772E084E595E143
:102BC0000F94AD7469816650CE0108960E9421264B
:102BD00068E772E084E595E10F94DD74CE01DF9142
:102BE000CF9124CD0F93FC01608341832283038323
:102BF0000F9108950895CF93DF93EC0161E08A81EE
:102C00000F94B07160E08B810F94B07161E08981A5
:102C10000F94B07161E088810F94B07161E0888198
:102C20000F94E9710F94996B80914915882399F05D
:102C30009FB7F89480914915813059F48DB38093F2
:102C400047152DB380914815809582238DBB9FBF7A
:102C500002C09093471580E58CBD1DBC8CBD8DB521
:102C60008EB5DF91CF910895CF93DF931F92CDB7AB
:102C7000DEB7698389818EBD0DB407FEFDCF8EB5A9
:102C80000F90DF91CF910895CF93DF93EC0160E037
:102C900088810F94E97181E090E00F94CB7061E03E
:102CA00088810F94E97189E290E00F94CB7060E025
:102CB00088810F94E9718B810F941E720197D9F36B
:102CC00060E3CE01D1DF60E3CE01CEDF61E0888139
:102CD000DF91CF910D94E9711F93CF93DF93EC01B6
:102CE000162F60E088810F94E9718B810F941E721A
:102CF0000197D9F3612FCE01B7DF182F61E08881EA
:102D00000F94E971812FDF91CF911F910895E4CF46
:102D10000F931F93CF93DF93EC01062F142F60E0E6
:102D200088810F94E9718B810F941E720197D9F3FA
:102D3000602FCE0199DF612FCE0196DF182F61E061
:102D400088810F94E971812FDF91CF911F910F91AD
:102D50000895CF93DF93EC01613011F546E060E018
:102D6000D7DF41E062E0CE01D3DF4DE063E0CE018A
:102D7000CFDF45E468E0CE01CBDF40E069E0CE0183
:102D8000C7DF43E06AE0CE01C3DF42E263E1CE0188
:102D9000BFDF40E065E1CE01BBDF45E468E03CC059
:102DA000623009F03BC049E260E0B2DF46E062E039
:102DB000CE01AEDF45E068E0CE01AADF41E069E088
:102DC000CE01A6DF40E16AE0CE01A2DF42EA63E184
:102DD000CE019EDF41E065E1CE019ADF47E066E18A
:102DE000CE0196DF40E367E1CE0192DF47E86EE176
:102DF000CE018EDF4BE66FE1CE018ADF48EF60E265
:102E0000CE0186DF41E467E2CE0182DF40E068E286
:102E1000CE017EDF49E569E2CE017ADF4FEF66E061
:102E2000CE0176DF44E067E0CE0172DF49E06BE07F
:102E3000CE016EDF40E06CE0CE016ADF4DE56DE073
:102E4000CE0166DF43E96EE0CE0162DF41EB6FE069
:102E5000CE015EDF4DE260E1CE015ADF4BE361E17E
:102E6000CE0156DF43E762E1CE0152DF48EF64E175
:102E7000CE014EDF48E168E1CE014ADF4DE169E174
:102E8000CE0146DF4CE16AE1CE0142DF47EC6BE167
:102E9000CE013EDF40E06CE1CE013ADF42EB6DE176
:102EA000CE0136DF46EB61E2CE0132DF40E162E285
:102EB000CE012EDF4AEE63E2CE012ADF4AE064E271
:102EC000CE0126DF40E065E2CE0122DF41E166E28D
:102ED000CE011EDF48E86CE2CE011ADF41E36DE26D
:102EE000CE0116DF4BE06EE2CE0112DF4FEF6EE750
:102EF000CE01DF91CF910CCFBF92CF92DF92EF92B4
:102F0000FF920F931F93CF93DF93EC01162F7A015B
:102F1000C22E60E088810F94E9718B810F941E723C
:102F20000197D9F3612FCE019FDEB82E8701D12CF6
:102F300098012E193F092C153D054CF4F8016081CC
:102F4000CE0192DEB82EF80181938F01F1CF61E0BE
:102F500088810F94E9718B2DDF91CF911F910F9193
:102F6000FF90EF90DF90CF90BF900895FF920F9366
:102F70001F93CF93DF93EC01862F8068F82E60E0DB
:102F800088810F94E97100E010E28B810F941E722A
:102F9000019729F401501109C1F71FEF11C06F2DDE
:102FA000CE0162DE6AE070E080E090E00F94A670EF
:102FB00060E0CE0159DE182F61E088810F94E9713D
:102FC000812FDF91CF911F910F91FF9008951F9353
:102FD000CF93DF93EC0160E3C9DF182F64E670E064
:102FE00080E090E00F94A67061E3CE01BFDFC82FB0
:102FF00064E670E080E090E00F94A670111104C0C8
:10300000CC2359F080E00AC01E3019F4CE30D1F73D
:1030100004C01F3FB9F7CF3FA9F781E0DF91CF91FF
:103020001F9108950F93CF93DF93EC01DBDD1C829A
:10303000DF91CF910F910895DDCDCF93DF93EC0118
:10304000DADDCE01C4DF8130C1F0CE011DDECE015C
:103050001BDE62E0CE017DDE4FEF6EE3CE0158DE77
:1030600066E3CE0154DE66E3CE0151DE69E3CE01B4
:103070004EDE66E3CE014BDE80E0DF91CF91089516
:10308000CF93DF93EC0166E342DE6AE3CE013FDEDD
:1030900064E3CE013CDE6AE070E080E090E00F94F3
:1030A000A67040E06BEFCE0133DE8930C9F440E01A
:1030B0006FEBCE012DDE863081F426E045EC53E146
:1030C0006FEFCE0119DF40E06FEBCE0121DE40E073
:1030D0006FEBCE011DDE86E004C06AE3CE0117DE91
:1030E00080E0DF91CF910895CF93DF93EC0166E309
:1030F0000EDE62E070E080E090E00F94A67066E380
:10310000CE0105DE6AE3CE01DF91CF9100CE1F93A1
:10311000CF93DF93EC01B4DF182FCE01E5DF16303B
:1031200011F0C0E061C08091BC13882311F10E94AE
:10313000BB2A63E773E084E595E10F94AD746CE618
:1031400073E084E595E10F94AD7486E00E947626E5
:103150006AE673E084E595E10F94AD7466E085EC72
:1031600093E10E94212668E673E084E595E10F94DF
:10317000DD74D091C9138091C513853591F6C09146
:10318000C613C13071F68091CA138A3A51F60E9473
:10319000BB2A6BE573E084E595E10F94AD7462E0C2
:1031A00087EC93E10E94212660E573E084E595E1D8
:1031B0000F94AD746BE473E084E595E10F94AD7406
:1031C000D13019F466E473E007C0D23019F469E332
:1031D00073E002C065E373E084E595E10F94AD749C
:1031E00084E595E10F94DA748C2FDF91CF911F91D4
:1031F00008958F929F92AF92BF92CF92DF92EF92FB
:10320000FF920F931F93CF93DF93CDB7DEB76397F2
:103210000FB6F894DEBF0FBECDBF8C01E62ED42EC4
:10322000C52E8091BC13882349F085E58D8781E008
:103230008E875F87488B698B8AEA8A8B84E1F82EB8
:1032400096E0892E25E5922EAA24A3943AEAB32E7D
:1032500065EFC80141DD8F7190E00297CCF789825C
:103260009A82AB82CC82DD82EE82BF82F8018481B9
:1032700091E0980F94838887198666E3C80147DD3B
:103280006BE3C80144DD29E0AE014F5F5F4F6FE79C
:10329000C80132DE65E3C8013ADD62E370E080E038
:1032A00090E00F94A670FA9499F666E3C8012FDDBA
:1032B0008091BC13882399F00E94BB2A65E273E0D9
:1032C00084E595E10F94AD7466E0CE010D960E9401
:1032D000212663E273E084E595E10F94DD74639643
:1032E0000FB6F894DEBF0FBECDBFDF91CF911F9117
:1032F0000F91FF90EF90DF90CF90BF90AF909F9095
:103300008F90089576CFAF92BF92CF92DF92EF92D7
:10331000FF920F931F93CF93DF93EC0163DC1C822A
:103320009E012B563F4FFE013596CF010996119213
:10333000E817F907E1F7E217F307B9F7108200E0A1
:1033400010E0E12CF12C88ECA82EA00EB12C6E011F
:10335000C00ED11EC7018A0D9B1D0F94C87DF601BA
:10336000EE0DFF1D85838FEFE81AF80A89E0E81655
:10337000F10481F7075F1F4F0039110511F7DF9145
:10338000CF911F910F91FF90EF90DF90CF90BF9062
:10339000AF9008952FCCCF93DF93EC012CDCCE01BE
:1033A00016DE8130C1F0CE016FDCCE016DDC61E054
:1033B000CE01CFDC4FEF6EE3CE01AADC66E3CE0197
:1033C000A6DC66E3CE01A3DC69E3CE01A0DC66E304
:1033D000CE019DDC80E0DF91CF910895CF93DF9304
:1033E000EC0166E394DC6AE3CE0191DC64E3CE0198
:1033F0008EDC6AE070E080E090E00F94A67040E020
:103400006BEFCE0185DC803188F040E06FEBCE01C0
:103410007FDC8E3041F42EE045EC53E16FEFCE01BE
:103420006BDD8EE004C06AE3CE0171DC80E0DF91E9
:10343000CF910895CF93DF93EC0166E368DC62E0FF
:1034400070E080E090E00F94A67066E3CE015FDC50
:103450006AE3CE01DF91CF915ACC20E030E040E02A
:1034600050E0BC01620F731FFB01E40FF51F1582D2
:103470004F5F5F4F4A305105B9F7275F3F4F203903
:10348000310569F7FC01EB56FF4F10820895AF92AA
:10349000BF92CF92DF92EF92FF920F931F93CF9341
:1034A000DF93D62EC72E7C0125E9E20EF11CF70131
:1034B0001081612F70E0FC0120E030E02617370713
:1034C000E4F445814423A9F0AD2DBC2D40E050E04B
:1034D00001E0BD904F5F5F4FEF01C40FD51FCD815D
:1034E000BC1200E048305105A1F7002311F0822FF3
:1034F00054C02F5F3F4F3996E1CF103109F44CC0D3
:1035000029E0269FF001279FF00D1124E80FF91FF5
:1035100021E02583F9E01F9F800D911D1124ED2DE1
:10352000FC2D20E030E02F5F3F4F4191DC01A20FE6
:10353000B31F15964C9328303105A9F71F5FF7018B
:103540001083C8EC0C2F10E0C8010F94C87D8130A7
:10355000F9F061E0C8010F94D07DE801219658018F
:10356000F9E0AF0EB11C0D2D1C2DCE010F94C87DBE
:10357000F80161918F01861719F0CE010F94D07D6B
:103580002196CA15DB0589F7F7018081815005C0B6
:10359000C75FC835B9F6F8CF8FEFDF91CF911F9194
:1035A0000F91FF90EF90DF90CF90BF90AF90089574
:1035B0001F93CF93DF93EC0111DF182FCE013ADF79
:1035C0001E3011F080E09AC08091CD138131D1F787
:1035D0008091C5138F3FB1F38091C6138F3F91F354
:1035E0008091C7138F3F71F38091C8138F3F51F3C0
:1035F0008091BC13882311F10E94BB2A69EB73E010
:1036000084E595E10F94AD7462EB73E084E595E198
:103610000F94AD748EE00E94762660EB73E084E533
:1036200095E10F94AD746EE085EC93E10E94212644
:103630006EEA73E084E595E10F94DD741091CE138A
:103640008DEF810F853008F0BDCF65EC73E1CE01C1
:103650001EDFC82F0E94BB2A62EA73E084E595E171
:103660000F94AD7464E085EC93E10E9421261F92D3
:10367000CF938DE792E09F938F93CBE6D3E1DF93D7
:10368000CF930F94AC7BBE0184E595E10F94D27487
:103690008091D2139091D11389271F928F9380919B
:1036A000D0131F928F938BE892E09F938F93DF93B9
:1036B000CF930F94AC7BBE0184E595E10F94D27457
:1036C0006DE973E084E595E10F94AD748DB79EB715
:1036D0000E960FB6F8949EBF0FBE8DBF173019F42B
:1036E00068E973E002C064E973E084E595E10F9452
:1036F000AD7484E595E10F94DA7481E0DF91CF91A8
:103700001F9108957F928F929F92AF92BF92CF9216
:10371000DF92EF92FF920F931F93CF93DF93CDB77A
:10372000DEB72F970FB6F894DEBF0FBECDBF6C018A
:10373000142FF22EFC01EB56FF4F8081681708F022
:1037400061C0F60189E0689FE00DF11D11248581BB
:10375000882309F457C05F0193E0792E2EE0822E72
:1037600031E1932E65EFC601B7DA8F7190E00297D1
:10377000CCF78982FE01329681E090E0D501A80F56
:10378000B91F15962C912193019689309105B1F7B7
:103790009A861B87F601848191E0980F94838C8729
:1037A000FD860E87EF8666E3C601B1DA6BE3C601DC
:1037B000AEDA2FE0AE014F5F5F4F6FE7C6019CDBD3
:1037C00065E3C601A4DA7A9469F68091BC13882374
:1037D000C9F0812F8B7F833011F0153099F40E944E
:1037E000BB2A65E873E084E595E10F94AD746EE063
:1037F000CE0102960E94212663E873E084E595E1FC
:103800000F94DD742F960FB6F894DEBF0FBECDBFB8
:10381000DF91CF911F910F91FF90EF90DF90CF90AC
:10382000BF90AF909F908F907F900895EF920F93ED
:1038300069DF0F91EF900895EF920F93E02E022F22
:10384000242F45E05FDF0F91EF900895EF920F93E3
:10385000E12C00E020E047E055DF0F91EF90089564
:10386000FC0171836083108E0895CF93DF93EC0188
:10387000CB01FA01288D211105C0118210828FEF32
:103880009FEF1CC0208131812A30310520F029E0D2
:1038900030E0318320832C8130E040815181241736
:1038A000350710F431832083BE016B5F7F4F408169
:1038B00051810F94347B188E8C8190E0DF91CF91F1
:1038C0000895DF92EF92FF920F931F93CF93DF93B0
:1038D000EC019E858091BC138E01025F1F4F9930D1
:1038E00009F054C0882331F06AE972E084E595E17B
:1038F0000F94ED7470E1D72E6DECE62E63E0F62E9A
:1039000088819981DC01ED91FC910084F185E02DA5
:103910006AE0199588819981DC01ED91FC91048020
:10392000F581E02D49E058E166E372E71995888159
:103930009981F7016491DC01ED91FC910488F5898E
:10394000E02D199588819981DC01ED91FC914E85DE
:1039500050E04F5F5F4F0484F585E02DB801199565
:1039600088819981DC01ED91FC910684F785E02D39
:103970001995BFEFEB1AFB0AE0EDEE16E3E0FE0649
:1039800009F0BECFDA9409F0B7CF02C19F85943A0F
:1039900009F054C0882331F065EA72E084E595E1CE
:1039A0000F94ED7450E1D52E4AECE42E43E0F42E52
:1039B00088819981DC01ED91FC910084F185E02DF5
:1039C00068E0199588819981DC01ED91FC91048072
:1039D000F581E02D4DEC5CEB6BEA7AE91995888175
:1039E0009981F7016491DC01ED91FC910488F589DE
:1039F000E02D199588819981DC01ED91FC914E852E
:103A000050E04F5F5F4F0484F585E02DB8011995B4
:103A100088819981DC01ED91FC910684F785E02D88
:103A20001995BFEFEB1AFB0AEDECEE16E3E0FE068C
:103A300009F0BECFDA9409F0B7CFAAC09A3509F0E1
:103A400054C0882331F06CEA72E084E595E10F946C
:103A5000ED7430E1D32E20EDE22E23E0F22E8881AA
:103A60009981DC01ED91FC910084F185E02D68E005
:103A7000199588819981DC01ED91FC910480F58193
:103A8000E02D4AEA55E56AE075E01995888199814B
:103A9000F7016491DC01ED91FC910488F589E02D3A
:103AA000199588819981DC01ED91FC914E8550E05A
:103AB0004F5F5F4F0484F585E02DB801199588812B
:103AC0009981DC01ED91FC910684F785E02D199533
:103AD000BFEFEB1AFB0AE3EDEE16E3E0FE0609F09A
:103AE000BECFDA9409F0B7CF53C0882331F063EB2F
:103AF00072E084E595E10F94ED7490E1D92E83EDA9
:103B0000E82E83E0F82E88819981DC01ED91FC910B
:103B10000084F185E02D68E0199588819981DC01A8
:103B2000ED91FC910480F581E02D4BE855E26AE7C8
:103B300074E1199588819981F7016491DC01ED9117
:103B4000FC910488F589E02D199588819981DC0123
:103B5000ED91FC914E8550E04F5F5F4F0484F585F9
:103B6000E02DB801199588819981DC01ED91FC91D6
:103B70000684F785E02D1995BFEFEB1AFB0AE6EDF9
:103B8000EE16E3E0FE0609F0BECFDA9409F0B7CFF7
:103B900080E090E0DF91CF911F910F91FF90EF9027
:103BA000DF900895982F9F7082958F70282F30E0B6
:103BB000692F70E041E050E06430710514F440E09A
:103BC00050E0240F351F2A5F3F4F277033272C5FAB
:103BD0003F4F81E02827E4E0220F331FEA95E1F709
:103BE00084E0890F92E089278F70822B08950F93CC
:103BF0001F93CF93DF938C01EC018991D3DF20E0F9
:103C000030E0F8019081492F4370F901EE0FFF1F5A
:103C1000EE0FFF1FE40FF11DEA52FC4FE4919455A3
:103C2000913810F440E801C040E098819E1B941B3D
:103C3000982799932F5F3F4F2830310511F7DF9177
:103C4000CF911F910F910895EF92FF920F931F93C1
:103C5000CF93DF931F921F92CDB7DEB78C01DC01AB
:103C60005896FC905897F110F5C05B968C915B9735
:103C70008F5F843018F45B968C9302C0F801138E2A
:103C8000D8015B962C915B978D919C91213009F422
:103C900049C038F1223009F466C0233009F084C0ED
:103CA000DC01ED91FC910084F185E02D6AE019952D
:103CB000F80180819181DC01ED91FC910480F58116
:103CC000E02D4DEC5CEB6BEA7AE91995F801808107
:103CD0009181DC01ED91FC910488F589E02D63E090
:103CE00062C0DC01ED91FC910084F185E02D6AE079
:103CF0001995F80180819181DC01ED91FC9104809E
:103D0000F581E02D4BE855E26AE774E11995F80179
:103D100080819181DC01ED91FC910488F589E02D91
:103D200069E041C0DC01ED91FC910084F185E02D5A
:103D30006AE01995F80180819181DC01ED91FC9197
:103D40000480F581E02D4AEA55E56AE075E01995B1
:103D5000F80180819181DC01ED91FC910488F58965
:103D6000E02D64E020C0DC01ED91FC910084F18540
:103D7000E02D6AE01995F80180819181DC01ED91D7
:103D8000FC910480F581E02D49E058E166E372E79B
:103D90001995F80180819181DC01ED91FC910488F5
:103DA000F589E02D68E01995F80180819181DC01A9
:103DB000ED91FC910088F189E02D1995882309F493
:103DC00047C08AE090E09A838983F80180819181DD
:103DD000DC01ED91FC910288F389E02DAE014F5F8B
:103DE0005F4FB8016C5F7F4F199597FD33C0898194
:103DF0009A81009779F1F801E4802E2D30E02F5F51
:103E00003F4F8217930731F5278130E0322F222769
:103E10008385282BC901AA2797FDA095BA2F428137
:103E2000538160E070E084179507A607B70731F467
:103E3000818D928D0196928F818F04C0338322836E
:103E400081E0808FB9E0EB1203C0C8010596CFDE98
:103E5000F801F08C8F2D0F900F90DF91CF911F9173
:103E60000F91FF90EF900895CF93DF93EC0188813D
:103E70009981DC01ED91FC910190F081E02D199583
:103E800097FD43C088819981DC01ED91FC9102840A
:103E9000F385E02D61E0199597FD37C08881998100
:103EA000DC01ED91FC910280F381E02D63E0199536
:103EB00097FD2BC088819981DC01ED91FC910680F2
:103EC000F781E02D64E0199597FD1FC088819981E5
:103ED000DC01ED91FC910480F581E02D49E058E191
:103EE00066E372E7199597FD10C088819981DC011E
:103EF000ED91FC910084F185E02D6AE0199597FD24
:103F000004C0CE01A1DE80E090E0DF91CF91089562
:103F10000F931F93CF93DF938C01EC01899142DEC5
:103F2000982F20E030E04881940FD8015C91652FF4
:103F30006370F901EE0FFF1FEE0FFF1FE60FF11D7B
:103F4000EA52FC4FE4915455513810F450E801C046
:103F500050E048274E0F450F49932F5F3F4F2730C2
:103F6000310509F7D801EC91E370F0E0EE50FC4F19
:103F7000E4919E5F98279E0FF8019087DF91CF9183
:103F80001F910F910895EF92FF920F931F93CF937C
:103F9000DF938C017B01EA014A30510530F549304D
:103FA0005105A9F4CB01B4DF8091BC13882379F0CB
:103FB0006BEB72E084E595E10F94D27469E0C70180
:103FC00040D668EC73E084E595E10F94DD74AE01B2
:103FD000B701C8010F960F94347BF801C687C8015A
:103FE00070DC97FD04C0CE0102C08FEF9FEFDF9120
:103FF000CF911F910F91FF90EF900895693028F4B1
:10400000FC01658380E090E008958FEF9FEF0895B5
:104010002CEF260F2F3038F460FD05C0FC016587BA
:1040200080E090E008958FEF9FEF0895FC01648396
:1040300080E090E00895FC01668780E090E00895BC
:10404000FC01680F791F80E090E0E617F707A9F000
:10405000419128E030E050E0DA01A827B927969591
:104060008795A0FF04C0A8E08A27A4E89A27559561
:1040700047952150310979F7E8CF0895982F28E026
:1040800030E080E0492F4170880F842B96952150B5
:104090003109C1F708950F931F93CF93DF938C01DC
:1040A000EA014132510510F0C0E2D0E0AE01C80192
:1040B00049960F94347BF801C68B11AECE01DF9187
:1040C000CF911F910F910895EF92FF920F931F933D
:1040D000CF93DF93EC01CB018A012E8930E0FA0106
:1040E000408151812417350710F4318320837E01EC
:1040F000F9E1EF0EF11CF80140815181B7010F94F5
:10410000347B4E89F8018081481B4E8B442351F04B
:1041100050E060817181675E7F4F6C0F7D1FC7012A
:104120000F943D7B8E8990E0DF91CF911F910F918D
:10413000FF90EF9008952F923F924F925F926F926F
:104140007F928F929F92AF92BF92CF92DF92EF9227
:10415000FF920F931F93CF93DF93CDB7DEB7AA974C
:104160000FB6F894DEBF0FBECDBF8C01DC011296F6
:104170008D919C9113970F94326DF801818D80FF82
:1041800003C085E5582E02C0BAEA5B2ED8015796C7
:10419000AC90B12CFE0131967F01812C912C3F0116
:1041A0008A149B040CF04CC06401FFEFCF1ADF0AA5
:1041B000D80155966C91559770E0C601860F971FF0
:1041C00015962C91159730E0821793071CF458969A
:1041D0008C9149C0F8014485D901A40FB11DAD01EE
:1041E0008A179B0724F5821A930ABFEF8B1A9B0A42
:1041F000860E971EE1E08E16910491F034F4892822
:1042000079F5D80116968C912EC082E0881691041B
:1042100051F093E08916910419F5F801818523C0C6
:10422000F801878120C0D80118968C911CC0258583
:10423000269526952695420F511D8417950794F0D3
:10424000F801F481F9A3D80156962C90FF2389F048
:10425000622D70E0C8014996F3DE9BA38AA309C0D2
:1042600080E001C0852D0ADFF70181937F014601BF
:1042700097CFD8011D968C918770E82EF12CC52C14
:10428000D12C88E090E08E199F0902C0D594C79484
:104290008A95E2F7312CB9A1BB2319F062E070E0F6
:1042A00002C060E070E0620D731DA1014F5F5F4FBF
:1042B0008FEF9FE1289E9001299E300D389E300D92
:1042C0001124A12CB12C90E0A214B3048CF4F801B9
:1042D000EA0DFB1DE18DF0E00E2C02C0EE0FFF1F7A
:1042E0000A94E2F7CE2ADF2AE8E0EE0EF11C04C0C1
:1042F000F9A1F11103C091E0240145C04A155B0505
:10430000D4F3F501E20FF31FA3E0EE0FFF1FAA9510
:10431000E1F7AAA1BBA102C0B695A795EA95E2F77D
:10432000FD01FF270E2C02C0EE0FFF1F0A94E2F7DB
:10433000CE2ADF2AB8E0EB0EF11CDECFE8E0F0E099
:10434000EE15FF0534F5E0E24E165104B0F58C2D64
:1043500029A73AA74FA358A76DA37EA39CA38EDEDF
:10436000F301E40DF51D8083CD2CDD24F8E0EF1A78
:10437000F1088FEF481A580A9CA17EA16DA158A59B
:104380004FA13AA529A542019923C1F2E0E0F0E04E
:10439000D7CFAFEFAA1ABA0A6A157B050CF094CFF3
:1043A0008E858F608E87442DB301F80182819381C1
:1043B0000F94A86D80E090E002C08FEF9FEFAA9667
:1043C0000FB6F894DEBF0FBECDBFDF91CF911F9126
:1043D0000F91FF90EF90DF90CF90BF90AF909F90A4
:1043E0008F907F906F905F904F903F902F900895A7
:1043F000CF93DF93EC018A819B810F94A76F8A8111
:104400009B810F94476F811121C061E070E08A8128
:104410009B810F94686F8A819B810F940A7001972A
:10442000C1F460E070E08A819B810F94686F8A819B
:104430009B810F940A7021E030E0892B11F420E079
:1044400030E088279927821B930B05C080E090E01D
:1044500002C08FEF9FEFDF91CF910895FC018FECA9
:1044600092E0918380837383628381E085831782E6
:104470001682118610861386128684E084878587CB
:1044800088E086871786168A178A108E11AE0895DF
:104490004F925F926F927F928F929F92AF92BF9254
:1044A000CF92DF92EF92FF920F931F93CF93DF9300
:1044B000EC01AD80B12C81E0A81AB1086C846501D3
:1044C000C60CD11C86E0C816D10434F0C60105978D
:1044D00045E0C42ED12C02C080E090E00D8510E0B4
:1044E000095F1F4F33E0159507953A95E1F7080FDF
:1044F000191F8E85080F111D8C81882311F00E5F06
:104500001F4F0132110508F089C083E0C816D1049D
:104510000CF484C04E805F8040FE03C025E5722EFF
:1045200002C09AEA792E7601812C912C8A149B0480
:104530006CF481E0E81AF108872DA0DDFE01EE0D94
:10454000FF1D808B8FEF881A980AF0CFE114F104D9
:1045500061F1842D93DD970121503109FE01E20FB5
:10456000F31F808B232B09F1570182E0A81AB108B1
:10457000852D84DDFE01EA0DFB1D808B84E0681231
:1045800014C0AB2891F0B984888578DD9701235059
:104590003109FE01E20FF31F808B232B31F08B2DAD
:1045A0006DDDFE01EE0DFF1D84870F8B788ECD8AA9
:1045B0006C2D8A819B810F948F6E7E0180E1E80EC5
:1045C000F11CB7018A819B810F940B6EA70161E0FA
:1045D0008A819B810F94A66E6F856E5F8A819B8115
:1045E0000F94236D602F8A819B810F94296D60E069
:1045F0008A819B810F944A6F63E08A819B810F942B
:10460000516F60E070E08A819B810F94686F8A81AE
:104610009B810F94197080E090E002C08FEF9FEFB4
:10462000DF91CF911F910F91FF90EF90DF90CF908E
:10463000BF90AF909F908F907F906F905F904F90C2
:104640000895CF93DF93EC018A819B810F94A76F2C
:10465000CE01DF91CF911CCFFC01278562136787C4
:1046600017DF99270895FC0184E0848777836683A8
:10467000808591859387828751874087CF0108CFB6
:104680002F923F924F925F926F927F928F929F9262
:10469000AF92BF92CF92DF92EF92FF920F931F9350
:1046A000CF93DF93CDB7DEB7A4970FB6F894DEBFF4
:1046B0000FBECDBF8C01FC0147899E012F5F3F4F8C
:1046C0007901B901828193810F94C96DC801B9DF65
:1046D000F8013584F32DF7703F2E8091BC138823A9
:1046E00091F167E174E084E595E10F94AD744AE0DF
:1046F00050E0F801678984E595E10F94C47564E1A1
:1047000074E084E595E10F94AD746701F801878941
:1047100090E096012E193F092817390784F4F60115
:1047200061916F0140E150E084E595E10F94C4751B
:1047300062E174E084E595E10F94AD74E7CF84E520
:1047400095E10F94DA74F8018789282F30E03AA3B5
:1047500029A32701A12CB12CC12CD12C812C912C67
:1047600049A15AA1A416B5060CF070C0F2018191BE
:104770002F0184DC4D2D5527282F30E0D22ECC245C
:10478000C42AD52AD5011196F8019589492F50E000
:104790005CA34BA34A0F5B1F658170E04617570768
:1047A0002CF4908D891709F44FC0D9C0F8012484E6
:1047B000CB01820D911D4817590744F5A61AB70A77
:1047C000FFEFAF1ABF0A4BA15CA1A40EB51E51E0CA
:1047D000A516B10451F082E0A816B10469F0AB2827
:1047E00099F5F801868197810DC0F8016780712CD9
:1047F0002615370549F1B3C0F4E02F1225C0F801A2
:104800008085918528173907F9F0A9C0F801258519
:1048100030E0295F3F4F73E0359527957A95E1F7B2
:10482000280F391F421753077CF0F701E80DF91DD7
:10483000C601032C02C0969587950A94E2F78083FF
:1048400094012F5F3F4F49015D018ACFA980B12CB0
:10485000650153E0C50ED11C80E2C816D1040CF0EE
:104860007EC08091BC13882301F169E074E084E587
:1048700095E10F94AD744701F40161914F0140E15E
:1048800050E084E595E10F94C47567E074E084E539
:1048900095E10F94AD74C4018E199F098C159D0587
:1048A0005CF384E595E10F94DA74F8018481882340
:1048B00009F449C06501FFEFCF1ADF0AB601C7014D
:1048C000BFDB4C01F701EC0DFD1D60809927712CB9
:1048D0008615970569F4292D3327E3E0F0E0EC0F06
:1048E000FD1FEA0DFB1D808190E02817390759F163
:1048F000E3E0F0E0EC0FFD1FEA0DFB1DB0808091BE
:10490000BC13882301F16BEF73E084E595E10F940C
:10491000AD7440E150E0B40184E595E10F94DF759A
:1049200066EF73E084E595E10F94AD74762D66270C
:104930006B2940E150E084E595E10F94DF7584E553
:1049400095E10F94DA74A601B701C80149960F9456
:10495000347BF801C68A81E081AFC60102C080E0E5
:1049600090E0A4960FB6F894DEBF0FBECDBFDF91E6
:10497000CF911F910F91FF90EF90DF90CF90BF905C
:10498000AF909F908F907F906F905F904F903F90EF
:104990002F900895CF93DF93EC018A819B810F9430
:1049A0000E6F8A819B810F94C66D882311F0CE0112
:1049B00067DE89AD882321F019AE8E8990E002C0B0
:1049C00080E090E0DF91CF9108950D94C87D0D9423
:1049D000D07DCF93DF93C4E6D0E0CE01F6DF88230D
:1049E00019F060E0CE01F3DF2196C43081E0D807F2
:1049F000A1F7DF91CF910895EF92FF920F931F934C
:104A0000CF93DF93EC017B018A018091050288231B
:104A100049F060E08EE00F94E971CE010F94CB7005
:104A200061E008C061E08EE00F94E971CE010F945F
:104A3000CB7060E08EE00F94E971CE010F94CB70E3
:104A4000F80180818F5F80838530A9F48091050211
:104A5000882311F060E001C061E08EE00F94E971FD
:104A6000C7010F94CB708091050291E08927809354
:104A70000502F8011082DF91CF911F910F91FF90F5
:104A8000EF900895DC01ED91FC910190F081E02D13
:104A9000199440E050E060E070E00D94EA79CF9323
:104AA000DF93EC0167E37BE00F944E7B892B09F4E5
:104AB000B7C06EEE72E0CE010F944E7B892B09F4E5
:104AC000B2C065EE72E0CE010F944E7B892B09F4E3
:104AD000ADC06BEE72E0CE010F944E7B892B09F4D2
:104AE000A8C064EF72E0CE010F944E7B892B09F4CD
:104AF000A3C062EF72E0CE010F944E7B892B09F4C4
:104B000065C069EF72E0CE010F944E7B892B09F4EA
:104B100060C06DEF72E0CE010F944E7B892B09F4DB
:104B20005BC064E073E0CE010F944E7B892B09F4E7
:104B300056C06AE073E0CE010F944E7B892B09F4D6
:104B400051C061E173E0CE010F944E7B892B09F4D3
:104B50004CC068E173E0CE010F944E7B892B09F4C1
:104B600047C06BE173E0CE010F944E7B892B09F4B3
:104B700042C060E273E0CE010F944E7B892BF1F1CD
:104B800065E273E0CE010F944E7B892BD1F16AE28E
:104B900073E0CE010F944E7B892BB1F160E373E09B
:104BA000CE010F944E7B892B91F168E373E0CE0127
:104BB0000F944E7B892B71F16EE373E0CE010F945D
:104BC0004E7B892B51F58EE890E038C08DE290E065
:104BD00035C08CE490E032C08DE490E02FC08CE3CF
:104BE00090E02CC08DE390E029C08EE390E026C0D9
:104BF0008EE490E023C08FE490E020C080E590E058
:104C00001DC088E490E01AC089E490E017C081E5F7
:104C100090E014C082E590E011C080E090E00EC00A
:104C20008BE490E00BC08AE490E008C08DE890E04F
:104C300005C087E390E002C08CE290E0DF91CF9165
:104C40000895CF92DF92FF920F931F93CF93DF933C
:104C5000CDB7DEB70DB71EB7262F30E0220F331FBA
:104C6000A9014F5F5F4FEDB7FEB7E41BF50B0FB621
:104C7000F894FEBF0FBEEDBF4DB75EB74F5F5F4FFD
:104C8000DA01F82E6C018C2D8F198617C8F4C60135
:104C9000F601708172957F7070637A3308F0795DE8
:104CA0007C93FFEFCF1ADF0AFC0180818F70806355
:104CB0008A3308F0895D11968C9311971296E3CF91
:104CC000FA01E20FF31F1082BA0184E595E10F9417
:104CD000D2740FB6F8941EBF0FBE0DBFDF91CF91F7
:104CE0001F910F91FF90DF90CF900895CF93DF93A6
:104CF00000D0CDB7DEB7982F92959F7090639A330E
:104D000008F0995F99838F7080638A3308F0895F18
:104D10008A831B82BE016F5F7F4F84E595E10F940C
:104D2000D2740F900F900F90DF91CF910895282F9C
:104D300098E0322F3170880F832B26959150C9F758
:104D40000895EF92FF920F931F93CF93DF93CDB708
:104D5000DEB72A970FB6F894DEBF0FBECDBF8E0127
:104D60000F5F1F4F8AE0F80111928A95E9F76BE314
:104D700070E082E393E10F946C7BF12CEE24E394DA
:104D80002FE233E1E21A009779F0FAE0FF1661F0C2
:104D90002E2D280FF80121938F01F3946BE370E01F
:104DA00001960F946C7BEFCFF0920C0E898180936B
:104DB0000B0E8A8180930A0E8B818093090E8C8161
:104DC0008093080E8D818093070E2A960FB6F89473
:104DD000DEBF0FBECDBFDF91CF911F910F91FF902E
:104DE000EF900895FF920F931F93CF93DF93182FA7
:104DF000062FF42EC0E0D0E0CE018C599F4FE5DDA8
:104E000081131CC0CE018B599F4FDFDD801316C06C
:104E1000CE018A599F4FD9DD8F1110C0CE0189591B
:104E20009F4FD3DD182FCE0188599F4FCEDD212F04
:104E300030E0322F2227280F311D06C02596C03AB8
:104E4000D105D1F62FEF3FEFC901DF91CF911F912F
:104E50000F91FF900895BF92CF92DF92EF92FF9251
:104E60000F931F93CF93DF93B82EC62ED42EF22E1E
:104E7000E32EC0E0D0E0CE018C599F4FA6DD8B1110
:104E80000DC0CE018B599F4FA0DD8C1107C0CE0104
:104E90008A599F4F9ADD8D1509F461C02596C03A55
:104EA000D10549F7003208F038C085E0089F80013D
:104EB0001124E801CC59DF4FCE0187DD8B1519F0A5
:104EC0006B2DCE0184DDE801CB59DF4FCE017DDDB6
:104ED0008C1519F06C2DCE017ADDE801CA59DF4F2F
:104EE000CE0173DD8D1519F06D2DCE0170DDE80159
:104EF000C959DF4FCE0169DD8E1519F06E2DCE0137
:104F000066DD08591F4FC80160DD8F1102C080E0C7
:104F100040C06F2DC8015BDDFACFC0E0D0E08E014C
:104F20000C591F4FC80151DD81112DC0BB2019F054
:104F30006B2DC8014CDD8E010B591F4FC80145DD9B
:104F40008C1519F06C2DC80142DD8E010A591F4FD6
:104F5000C8013BDD8D1519F06D2DC80138DD8E01BE
:104F600009591F4FC80131DD8E1519F06E2DC8018A
:104F70002EDDC859DF4FCE0128DD8F1509F4C7CFCC
:104F80006F2DCE01C8CF2596C03AD10509F0C7CF05
:104F900081E0DF91CF911F910F91FF90EF90DF9013
:104FA000CF90BF900895CF93DF9381110EC0C0E0E2
:104FB000D0E0CE010ADD882319F060E0CE0107DDE4
:104FC0002196C436D105A9F713C0813019F4DF91B9
:104FD000CF91FFCCC0E2D3E0CE01F7DC882319F0FB
:104FE00060E0CE01F4DC2996C03B83E0D807A1F74E
:104FF000DF91CF910895EF92FF920F931F93CF937C
:10500000DF9394E0899F800D1124C0E0D0E0E82E6A
:10501000F12C84E6E80EF11C87010C0F1D1FC8015E
:10502000D4DC882319F060E0C801D1DC2196C530BA
:10503000D10591F7DF91CF911F910F91FF90EF90E4
:105040000895CF92DF92EF92FF920F931F93CF9329
:10505000DF93C4E6D0E010E0CE01B7DCC82ECE016D
:105060000196B3DCD82ECE010296AFDCE82ECE013D
:105070000396ABDCF82ECE010496A7DC082F64E67D
:105080007EE184E595E10F94AD744AE050E0612F34
:1050900084E595E10F94C47569E57EE184E595E1C9
:1050A0000F94AD748C2D22DE8D2D20DE8E2D1EDE14
:1050B00063E57EE184E595E10F94AD748F2D16DEF6
:1050C000802F14DE84E595E10F94DA741F5F259636
:1050D000103109F0C1CFC4E6D0E010E0CE0175DC9C
:1050E000C82ECE01019671DCD82ECE0102966DDC61
:1050F000E82ECE01039669DCF82ECE01049665DC1D
:10510000082F66E47EE184E595E10F94AD744AE0F2
:1051100050E0612F84E595E10F94C4756BE37EE167
:1051200084E595E10F94AD748C2DE0DD8D2DDEDDF1
:105130008E2DDCDD65E37EE184E595E10F94AD74B1
:105140008F2DD4DD802FD2DD84E595E10F94DA74C4
:105150001F5F2596103109F0C1CF8091AE138823CF
:1051600031F068E27EE184E595E10F94AD748091C1
:10517000AD13882371F06BE17EE184E595E1DF9169
:10518000CF911F910F91FF90EF90DF90CF900D94F2
:10519000AD74DF91CF911F910F91FF90EF90DF9051
:1051A000CF9008959F92AF92BF92CF92DF92EF92ED
:1051B000FF920F931F93CF93DF9366EF7DE184E51A
:1051C00095E10F94DD74C0E2D3E010E0CE01FDDB89
:1051D000882309F44CC0CE010196F7DB982ECE014E
:1051E0000296F3DBA82ECE010396EFDBB82ECE019C
:1051F0000496EBDBC82ECE010596E7DBD82ECE0158
:105200000696E3DBE82ECE010796DFDBF82ECE0113
:105210000896DBDB082F68EE7DE184E595E10F94CD
:10522000AD744AE050E0612F84E595E10F94C475B8
:105230006DED7DE184E595E10F94AD74892D56DD2A
:105240008A2D54DD8B2D52DD8C2D50DD8D2D4EDDC4
:105250008E2D4CDD8F2D4ADD802F48DD84E595E1D4
:105260000F94DA741F5F2996103109F0AFCFDF91E8
:10527000CF911F910F91FF90EF90DF90CF90BF9053
:10528000AF909F900895BF92CF92DF92EF92FF92DE
:105290000F931F93CF93DF93CCE2D1E010E0CE01C8
:1052A00094DB8A3A09F058C0CE0101968EDBB82E05
:1052B000CE0102968ADBC82ECE01039686DBD82E5D
:1052C000CE01049682DBE82ECE0105967EDBF82E19
:1052D000CE0106967ADB082F61ED7DE184E595E14C
:1052E0000F94AD7440E150E0612F84E595E10F9497
:1052F000C4756BEC7DE184E595E10F94AD748B2D65
:10530000F5DC8C2DF3DC8D2DF1DC66EC7DE184E5A4
:1053100095E10F94AD748E2DE9DC61EC7DE184E5BF
:1053200095E10F94AD748F2DE1DC6CEB7DE184E5AC
:1053300095E10F94AD74802FD9DC10FD03C066EBAE
:105340007DE102C06FEA7DE184E595E10F94AD74E3
:1053500084E595E10F94DA741F5F2796103209F007
:105360009ECFDF91CF911F910F91FF90EF90DF9033
:10537000CF90BF9008951F93CF93DF93CCE2D1E0FD
:1053800010E0CE0122DB8A3A09F41F5F2796CC3069
:1053900082E0D807B1F7812FDF91CF911F91089557
:1053A000EF92FF920F931F93CF93DF93082FF62E68
:1053B000E42ECCE2D1E010E0CE0107DB8A3A79F4AA
:1053C000CE01019602DB80130AC0CE010296FDDAFF
:1053D0008F1105C0CE010396F8DA8E1531F01F5FEC
:1053E0002796103249F78FEF01C0812FDF91CF91BF
:1053F0001F910F91FF90EF9008958F929F92AF921F
:10540000BF92CF92DF92EF92FF920F931F93CF93B1
:10541000DF935B016A017901803208F044C097E0B4
:10542000899FE0011124CE01845D9E4FCEDA8A3A35
:1054300009F03BC0CE01835D9E4FC7DA882ECE01B6
:10544000825D9E4FC2DA982ECE01815D9E4FBDDAFD
:10545000482D50E0542F4427662757FD6095762F3E
:10546000490D511D611D711D762F652F542F442745
:10547000480F511D611D711DF501408351836283E9
:105480007383CE01805D9E4FA0DAF6018083CE014A
:105490008F5C9E4F9ADAF7018083CE018E5C9E4F1F
:1054A00094DAF801808380E001C08FEFDF91CF9123
:1054B0001F910F91FF90EF90DF90CF90BF90AF9032
:1054C0009F908F900895AF92BF92CF92EF920F93DB
:1054D0001F93CF93DF931F921F92CDB7DEB7162F86
:1054E000803208F03DC097E0899F50011124C5012A
:1054F000845D9E4F611106C0411104C0211102C09C
:105500006FEF23C06AEA2A83498361DA612FC501FC
:10551000835D9E4F5CDA4981642FC501825D9E4F99
:1055200056DA2A81622FC501815D9E4F50DA602FC5
:10553000C501805D9E4F4BDA6E2DC5018F5C9E4F7D
:1055400046DA6C2DC5018E5C9E4F0F900F90DF9157
:10555000CF911F910F91EF90CF90BF90AF9037CA2E
:105560000F900F90DF91CF911F910F91EF90CF90FF
:10557000BF90AF9008956BEA7DE184E595E10F94CB
:10558000AD748091BD1391E0980F9093BD13AECB95
:10559000EF92FF920F931F93CF93DF938091560E5C
:1055A0009091570E8731910534F41092570E109256
:1055B000560E0C94143782975CF4E1E6FEE081917C
:1055C000833410F00C9414372EE0E836F207B9F764
:1055D0008091BC13882309F444C0CDDF66E07DE1EF
:1055E00084E595E10F94AD746091560E7091570E5D
:1055F0004AE050E084E595E10F949B7567EF7CE10C
:1056000084E595E10F94AD7400E61EE0C1E0D0E0C2
:105610008091560E9091570E8C179D07E4F0D8019B
:105620006D918D0180915A0E689FB00111244AE05E
:1056300050E084E595E10F949B758091560E909112
:10564000570EC817D9072CF46CE270E084E595E199
:1056500019DA2196DDCF65EF7CE184E595E10F94C1
:10566000DD742091560E3091570E2937310544F4E0
:105670002037310511F00C94123789E40C9410375F
:10568000283C310579F02A3F310561F02E35B1E033
:105690003B0741F02039E1E03E0721F02F3FF1E0E8
:1056A0003F0781F58091910E893760F18091C30E9B
:1056B000893740F18091F50E893720F18091610E94
:1056C000813178F48091620E813168F48091630EAB
:1056D000813148F48091640E813128F482E390E0B6
:1056E000E0C0853178F48091620E853158F4809164
:1056F000630E853138F48091640E853118F482E3AD
:1057000090E0F8C0C90162E370E00F947178A901DC
:10571000481B590B483C5105D1F04A3F5105B9F09F
:105720004C3261E0560799F04E35A1E05A0779F006
:105730004039B1E05B0759F0423CE1E05E0739F0E7
:10574000443FF1E05F0719F04F3F5140E1F5FC01A4
:10575000EA5AF14F81858D38B0F183AD8D3898F1DB
:10576000DF01A359BF4F8C918D3868F1D2968C918F
:105770008D3848F18385853148F48485853130F44E
:105780008585853118F48685853128F0A0E6BEE050
:1057900080E090E00EC0A0E6BEE080E090E00196E0
:1057A000EF01C80FD91F29852D9382339105B9F7D1
:1057B000A1C00196EF01C80FD91F29852D9382330F
:1057C0009105B9F7D9C1283C310559F02A3F310577
:1057D00041F02C3281E0380721F02E3591E0390775
:1057E00069F461E67EE0E6E6FEE0C5E6DEE0A4E61A
:1057F000EA2EAEE0FA2E82E090E020C02039A1E04F
:105800003A0779F3223CB1E03B0759F32F3FE1E03F
:105810003E0709F07AC0E5CFAC014A5A514FDA0190
:10582000DB961C911D3880F4019631962196BFEFCE
:10583000EB1AFB0A8333910509F467C0DB014D9134
:10584000BD014D3888F3E8CF8F01015A1F4FD801B1
:105850001C911D3848F38F010F561F4FD8011C9122
:105860001D3810F38F0103501109D8011C9111311B
:1058700018F5D7011C91113110F518811131F8F488
:1058800010811131E0F4E0E6FEE080E090E0019666
:10589000DA01A80FB91F19962C9121938233910533
:1058A000B1F79093570E8093560E83E080935F0E6E
:1058B0008093430E0C941237153108F0B5CFD70101
:1058C0001C91153108F0B0CF1881153108F0ACCF1C
:1058D0001081153108F0A8CFE0E6FEE080E090E00E
:1058E0000196DA01A80FB91F19962C9121938233E2
:1058F0009105B1F79093570E8093560E83E08093F5
:105900005F0E1092430E0C941237C9018A5D910903
:105910000597D0F52A3D310531F02C3D310531F0A8
:1059200080E090E005C088E290E002C08AE290E06A
:10593000FC01EA5AF14F42854252403258F546A9DD
:105940004252403238F5DF01AE59BF4F4C914252BE
:10595000403200F5181619064CF08CE290E0909356
:10596000570E8093560E86E40C941037A0E6BEE0E6
:1059700080E090E00196EF01C80FD91F29852D9393
:105980008C329105B9F7E9CF243A310559F0263F19
:10599000310541F02A39E1E03E0721F02C3EF1E0EB
:1059A0003F07D9F48091600E8D38B8F08091610E78
:1059B000823298F08091B20E8D3878F08091B30EDB
:1059C000823258F0243A3105A1F18091040F8D38CC
:1059D00020F08091050F823260F52F3F41E03407BF
:1059E00089F58091AF0E893C08F45BC08091B00EC0
:1059F0008D3808F456C08091B10E823208F451C03F
:105A00008091010F893C08F44CC08091020F8D38C1
:105A100008F447C08091030F823208F442C0E0EBE3
:105A2000FEE0A0E6BEE081918D936FE0E230F607E4
:105A3000D1F782E590E09093570E8093560E8AE15D
:105A40000C941037283C310521F02C3281E03807C6
:105A500069F48091600E833448F08091C30E8738DA
:105A600028F08091C40E833408F053C62A3C3105D7
:105A7000C1F02E3291E03907A1F02039A1E03A07B8
:105A800081F0223BB1E03B0761F0223CE1E03E07C0
:105A900041F0243FF1E03F0721F02F3F41E0340780
:105AA00089F48091610E8354803160F48091930E6B
:105AB000833440F08091C50E833420F08091600ED5
:105AC000813168F12E3B310541F0C901897F803C6D
:105AD000910519F02C3C310559F582E4820F90E0D4
